{
  "_format": "hh-sol-artifact-1",
  "contractName": "Lazy",
  "sourceName": "contracts/Lazy.sol",
  "abi": [
    {
      "inputs": [],
      "stateMutability": "nonpayable",
      "type": "constructor"
    },
    {
      "anonymous": false,
      "inputs": [
        {
          "indexed": true,
          "internalType": "address",
          "name": "owner",
          "type": "address"
        },
        {
          "indexed": true,
          "internalType": "address",
          "name": "approved",
          "type": "address"
        },
        {
          "indexed": true,
          "internalType": "uint256",
          "name": "tokenId",
          "type": "uint256"
        }
      ],
      "name": "Approval",
      "type": "event"
    },
    {
      "anonymous": false,
      "inputs": [
        {
          "indexed": true,
          "internalType": "address",
          "name": "owner",
          "type": "address"
        },
        {
          "indexed": true,
          "internalType": "address",
          "name": "operator",
          "type": "address"
        },
        {
          "indexed": false,
          "internalType": "bool",
          "name": "approved",
          "type": "bool"
        }
      ],
      "name": "ApprovalForAll",
      "type": "event"
    },
    {
      "anonymous": false,
      "inputs": [
        {
          "indexed": true,
          "internalType": "address",
          "name": "from",
          "type": "address"
        },
        {
          "indexed": true,
          "internalType": "address",
          "name": "to",
          "type": "address"
        },
        {
          "indexed": true,
          "internalType": "uint256",
          "name": "tokenId",
          "type": "uint256"
        }
      ],
      "name": "Transfer",
      "type": "event"
    },
    {
      "inputs": [
        {
          "internalType": "address",
          "name": "to",
          "type": "address"
        },
        {
          "internalType": "uint256",
          "name": "tokenId",
          "type": "uint256"
        }
      ],
      "name": "approve",
      "outputs": [],
      "stateMutability": "nonpayable",
      "type": "function"
    },
    {
      "inputs": [
        {
          "internalType": "address",
          "name": "owner",
          "type": "address"
        }
      ],
      "name": "balanceOf",
      "outputs": [
        {
          "internalType": "uint256",
          "name": "",
          "type": "uint256"
        }
      ],
      "stateMutability": "view",
      "type": "function"
    },
    {
      "inputs": [
        {
          "internalType": "uint256",
          "name": "tokenId",
          "type": "uint256"
        }
      ],
      "name": "getApproved",
      "outputs": [
        {
          "internalType": "address",
          "name": "",
          "type": "address"
        }
      ],
      "stateMutability": "view",
      "type": "function"
    },
    {
      "inputs": [],
      "name": "getNFTs",
      "outputs": [
        {
          "components": [
            {
              "internalType": "string",
              "name": "name",
              "type": "string"
            },
            {
              "internalType": "string",
              "name": "description",
              "type": "string"
            },
            {
              "internalType": "string",
              "name": "imageUrl",
              "type": "string"
            },
            {
              "internalType": "uint256",
              "name": "tokenId",
              "type": "uint256"
            },
            {
              "internalType": "address",
              "name": "owner",
              "type": "address"
            },
            {
              "internalType": "uint256",
              "name": "price",
              "type": "uint256"
            }
          ],
          "internalType": "struct Lazy.NFTStruct[]",
          "name": "NFTs",
          "type": "tuple[]"
        }
      ],
      "stateMutability": "view",
      "type": "function"
    },
    {
      "inputs": [
        {
          "internalType": "address",
          "name": "owner",
          "type": "address"
        },
        {
          "internalType": "address",
          "name": "operator",
          "type": "address"
        }
      ],
      "name": "isApprovedForAll",
      "outputs": [
        {
          "internalType": "bool",
          "name": "",
          "type": "bool"
        }
      ],
      "stateMutability": "view",
      "type": "function"
    },
    {
      "inputs": [
        {
          "internalType": "string",
          "name": "name",
          "type": "string"
        },
        {
          "internalType": "string",
          "name": "description",
          "type": "string"
        },
        {
          "internalType": "string",
          "name": "imageUrl",
          "type": "string"
        },
        {
          "internalType": "uint256",
          "name": "price",
          "type": "uint256"
        }
      ],
      "name": "mint",
      "outputs": [],
      "stateMutability": "payable",
      "type": "function"
    },
    {
      "inputs": [],
      "name": "name",
      "outputs": [
        {
          "internalType": "string",
          "name": "",
          "type": "string"
        }
      ],
      "stateMutability": "view",
      "type": "function"
    },
    {
      "inputs": [
        {
          "internalType": "uint256",
          "name": "tokenId",
          "type": "uint256"
        }
      ],
      "name": "ownerOf",
      "outputs": [
        {
          "internalType": "address",
          "name": "",
          "type": "address"
        }
      ],
      "stateMutability": "view",
      "type": "function"
    },
    {
      "inputs": [
        {
          "internalType": "address",
          "name": "from",
          "type": "address"
        },
        {
          "internalType": "address",
          "name": "to",
          "type": "address"
        },
        {
          "internalType": "uint256",
          "name": "tokenId",
          "type": "uint256"
        }
      ],
      "name": "safeTransferFrom",
      "outputs": [],
      "stateMutability": "nonpayable",
      "type": "function"
    },
    {
      "inputs": [
        {
          "internalType": "address",
          "name": "from",
          "type": "address"
        },
        {
          "internalType": "address",
          "name": "to",
          "type": "address"
        },
        {
          "internalType": "uint256",
          "name": "tokenId",
          "type": "uint256"
        },
        {
          "internalType": "bytes",
          "name": "data",
          "type": "bytes"
        }
      ],
      "name": "safeTransferFrom",
      "outputs": [],
      "stateMutability": "nonpayable",
      "type": "function"
    },
    {
      "inputs": [
        {
          "internalType": "address",
          "name": "operator",
          "type": "address"
        },
        {
          "internalType": "bool",
          "name": "approved",
          "type": "bool"
        }
      ],
      "name": "setApprovalForAll",
      "outputs": [],
      "stateMutability": "nonpayable",
      "type": "function"
    },
    {
      "inputs": [
        {
          "internalType": "bytes4",
          "name": "interfaceId",
          "type": "bytes4"
        }
      ],
      "name": "supportsInterface",
      "outputs": [
        {
          "internalType": "bool",
          "name": "",
          "type": "bool"
        }
      ],
      "stateMutability": "view",
      "type": "function"
    },
    {
      "inputs": [],
      "name": "symbol",
      "outputs": [
        {
          "internalType": "string",
          "name": "",
          "type": "string"
        }
      ],
      "stateMutability": "view",
      "type": "function"
    },
    {
      "inputs": [
        {
          "internalType": "uint256",
          "name": "tokenId",
          "type": "uint256"
        }
      ],
      "name": "tokenURI",
      "outputs": [
        {
          "internalType": "string",
          "name": "",
          "type": "string"
        }
      ],
      "stateMutability": "view",
      "type": "function"
    },
    {
      "inputs": [
        {
          "internalType": "address",
          "name": "from",
          "type": "address"
        },
        {
          "internalType": "address",
          "name": "to",
          "type": "address"
        },
        {
          "internalType": "uint256",
          "name": "tokenId",
          "type": "uint256"
        }
      ],
      "name": "transferFrom",
      "outputs": [],
      "stateMutability": "nonpayable",
      "type": "function"
    }
  ],
  "bytecode": "0x608060405266470de4df8200006007553480156200001c57600080fd5b50604051806040016040528060098152602001682630bd3c9021b7b4b760b91b815250604051806040016040528060038152602001624c5a4360e81b81525081600090816200006c919062000129565b5060016200007b828262000129565b505050620001f5565b634e487b7160e01b600052604160045260246000fd5b600181811c90821680620000af57607f821691505b602082108103620000d057634e487b7160e01b600052602260045260246000fd5b50919050565b601f8211156200012457600081815260208120601f850160051c81016020861015620000ff5750805b601f850160051c820191505b8181101562000120578281556001016200010b565b5050505b505050565b81516001600160401b0381111562000145576200014562000084565b6200015d816200015684546200009a565b84620000d6565b602080601f8311600181146200019557600084156200017c5750858301515b600019600386901b1c1916600185901b17855562000120565b600085815260208120601f198616915b82811015620001c657888601518255948401946001909101908401620001a5565b5085821015620001e55787850151600019600388901b60f8161c191681555b5050505050600190811b01905550565b611bfd80620002056000396000f3fe6080604052600436106100e85760003560e01c806342842e0e1161008a578063a22cb46511610059578063a22cb46514610276578063b88d4fde14610296578063c87b56dd146102b6578063e985e9c5146102d657600080fd5b806342842e0e146101f35780636352211e1461021357806370a082311461023357806395d89b411461026157600080fd5b8063095ea7b3116100c6578063095ea7b31461017c578063227212f21461019e57806323b872dd146101c057806331b6475c146101e057600080fd5b806301ffc9a7146100ed57806306fdde0314610122578063081812fc14610144575b600080fd5b3480156100f957600080fd5b5061010d610108366004611482565b6102f6565b60405190151581526020015b60405180910390f35b34801561012e57600080fd5b50610137610348565b60405161011991906114ef565b34801561015057600080fd5b5061016461015f366004611502565b6103da565b6040516001600160a01b039091168152602001610119565b34801561018857600080fd5b5061019c610197366004611537565b610401565b005b3480156101aa57600080fd5b506101b361051b565b6040516101199190611561565b3480156101cc57600080fd5b5061019c6101db366004611629565b6107c3565b61019c6101ee366004611711565b6107f4565b3480156101ff57600080fd5b5061019c61020e366004611629565b610a06565b34801561021f57600080fd5b5061016461022e366004611502565b610a21565b34801561023f57600080fd5b5061025361024e3660046117a1565b610a81565b604051908152602001610119565b34801561026d57600080fd5b50610137610b07565b34801561028257600080fd5b5061019c6102913660046117bc565b610b16565b3480156102a257600080fd5b5061019c6102b13660046117f8565b610b25565b3480156102c257600080fd5b506101376102d1366004611502565b610b5d565b3480156102e257600080fd5b5061010d6102f1366004611874565b610bd1565b60006001600160e01b031982166380ac58cd60e01b148061032757506001600160e01b03198216635b5e139f60e01b145b8061034257506301ffc9a760e01b6001600160e01b03198316145b92915050565b606060008054610357906118a7565b80601f0160208091040260200160405190810160405280929190818152602001828054610383906118a7565b80156103d05780601f106103a5576101008083540402835291602001916103d0565b820191906000526020600020905b8154815290600101906020018083116103b357829003601f168201915b5050505050905090565b60006103e582610bff565b506000908152600460205260409020546001600160a01b031690565b600061040c82610a21565b9050806001600160a01b0316836001600160a01b03160361047e5760405162461bcd60e51b815260206004820152602160248201527f4552433732313a20617070726f76616c20746f2063757272656e74206f776e656044820152603960f91b60648201526084015b60405180910390fd5b336001600160a01b038216148061049a575061049a8133610bd1565b61050c5760405162461bcd60e51b815260206004820152603d60248201527f4552433732313a20617070726f76652063616c6c6572206973206e6f7420746f60448201527f6b656e206f776e6572206f7220617070726f76656420666f7220616c6c0000006064820152608401610475565b6105168383610c61565b505050565b606061052660065490565b67ffffffffffffffff81111561053e5761053e611665565b60405190808252806020026020018201604052801561057757816020015b61056461142d565b81526020019060019003908161055c5790505b50905060005b6006548110156107bf57600860006105968360016118f7565b81526020019081526020016000206040518060c00160405290816000820180546105bf906118a7565b80601f01602080910402602001604051908101604052809291908181526020018280546105eb906118a7565b80156106385780601f1061060d57610100808354040283529160200191610638565b820191906000526020600020905b81548152906001019060200180831161061b57829003601f168201915b50505050508152602001600182018054610651906118a7565b80601f016020809104026020016040519081016040528092919081815260200182805461067d906118a7565b80156106ca5780601f1061069f576101008083540402835291602001916106ca565b820191906000526020600020905b8154815290600101906020018083116106ad57829003601f168201915b505050505081526020016002820180546106e3906118a7565b80601f016020809104026020016040519081016040528092919081815260200182805461070f906118a7565b801561075c5780601f106107315761010080835404028352916020019161075c565b820191906000526020600020905b81548152906001019060200180831161073f57829003601f168201915b50505091835250506003820154602082015260048201546001600160a01b0316604082015260059091015460609091015282518390839081106107a1576107a161190a565b602002602001018190525080806107b790611920565b91505061057d565b5090565b6107cd3382610ccf565b6107e95760405162461bcd60e51b815260040161047590611939565b610516838383610d2e565b60075434101561083c5760405162461bcd60e51b8152602060048201526013602482015272125b9cdd59999a58da595b9d08185b5bdd5b9d606a1b6044820152606401610475565b60008451116108845760405162461bcd60e51b81526020600482015260146024820152736e616d652063616e6e6f7420626520656d70747960601b6044820152606401610475565b60008351116108d55760405162461bcd60e51b815260206004820152601b60248201527f6465736372697074696f6e2063616e6e6f7420626520656d70747900000000006044820152606401610475565b60008251116109265760405162461bcd60e51b815260206004820152601860248201527f696d61676555726c2063616e6e6f7420626520656d70747900000000000000006044820152606401610475565b610934600680546001019055565b600061093f60065490565b905061094b3382610e9f565b61095361142d565b606081018290528581526020808201869052604080830186905260a083018590523360808401526000848152600890925290208151829190819061099790826119d4565b50602082015160018201906109ac90826119d4565b50604082015160028201906109c190826119d4565b506060820151600382015560808201516004820180546001600160a01b0319166001600160a01b0390921691909117905560a090910151600590910155505050505050565b61051683838360405180602001604052806000815250610b25565b6000818152600260205260408120546001600160a01b0316806103425760405162461bcd60e51b8152602060048201526018602482015277115490cdcc8c4e881a5b9d985b1a59081d1bdad95b88125160421b6044820152606401610475565b60006001600160a01b038216610aeb5760405162461bcd60e51b815260206004820152602960248201527f4552433732313a2061646472657373207a65726f206973206e6f7420612076616044820152683634b21037bbb732b960b91b6064820152608401610475565b506001600160a01b031660009081526003602052604090205490565b606060018054610357906118a7565b610b21338383611038565b5050565b610b2f3383610ccf565b610b4b5760405162461bcd60e51b815260040161047590611939565b610b5784848484611106565b50505050565b6060610b6882610bff565b6000610b7f60408051602081019091526000815290565b90506000815111610b9f5760405180602001604052806000815250610bca565b80610ba984611139565b604051602001610bba929190611a94565b6040516020818303038152906040525b9392505050565b6001600160a01b03918216600090815260056020908152604080832093909416825291909152205460ff1690565b6000818152600260205260409020546001600160a01b0316610c5e5760405162461bcd60e51b8152602060048201526018602482015277115490cdcc8c4e881a5b9d985b1a59081d1bdad95b88125160421b6044820152606401610475565b50565b600081815260046020526040902080546001600160a01b0319166001600160a01b0384169081179091558190610c9682610a21565b6001600160a01b03167f8c5be1e5ebec7d5bd14f71427d1e84f3dd0314c0f7b2291e5b200ac8c7c3b92560405160405180910390a45050565b600080610cdb83610a21565b9050806001600160a01b0316846001600160a01b03161480610d025750610d028185610bd1565b80610d265750836001600160a01b0316610d1b846103da565b6001600160a01b0316145b949350505050565b826001600160a01b0316610d4182610a21565b6001600160a01b031614610d675760405162461bcd60e51b815260040161047590611ac3565b6001600160a01b038216610dc95760405162461bcd60e51b8152602060048201526024808201527f4552433732313a207472616e7366657220746f20746865207a65726f206164646044820152637265737360e01b6064820152608401610475565b610dd683838360016111cc565b826001600160a01b0316610de982610a21565b6001600160a01b031614610e0f5760405162461bcd60e51b815260040161047590611ac3565b600081815260046020908152604080832080546001600160a01b03199081169091556001600160a01b0387811680865260038552838620805460001901905590871680865283862080546001019055868652600290945282852080549092168417909155905184937fddf252ad1be2c89b69c2b068fc378daa952ba7f163c4a11628f55a4df523b3ef91a4505050565b6001600160a01b038216610ef55760405162461bcd60e51b815260206004820181905260248201527f4552433732313a206d696e7420746f20746865207a65726f20616464726573736044820152606401610475565b6000818152600260205260409020546001600160a01b031615610f5a5760405162461bcd60e51b815260206004820152601c60248201527f4552433732313a20746f6b656e20616c7265616479206d696e746564000000006044820152606401610475565b610f686000838360016111cc565b6000818152600260205260409020546001600160a01b031615610fcd5760405162461bcd60e51b815260206004820152601c60248201527f4552433732313a20746f6b656e20616c7265616479206d696e746564000000006044820152606401610475565b6001600160a01b038216600081815260036020908152604080832080546001019055848352600290915280822080546001600160a01b0319168417905551839291907fddf252ad1be2c89b69c2b068fc378daa952ba7f163c4a11628f55a4df523b3ef908290a45050565b816001600160a01b0316836001600160a01b0316036110995760405162461bcd60e51b815260206004820152601960248201527f4552433732313a20617070726f766520746f2063616c6c6572000000000000006044820152606401610475565b6001600160a01b03838116600081815260056020908152604080832094871680845294825291829020805460ff191686151590811790915591519182527f17307eab39ab6107e8899845ad3d59bd9653f200f220920489ca2b5937696c31910160405180910390a3505050565b611111848484610d2e565b61111d84848484611254565b610b575760405162461bcd60e51b815260040161047590611b08565b6060600061114683611355565b600101905060008167ffffffffffffffff81111561116657611166611665565b6040519080825280601f01601f191660200182016040528015611190576020820181803683370190505b5090508181016020015b600019016f181899199a1a9b1b9c1cb0b131b232b360811b600a86061a8153600a850494508461119a57509392505050565b6001811115610b57576001600160a01b03841615611212576001600160a01b0384166000908152600360205260408120805483929061120c908490611b5a565b90915550505b6001600160a01b03831615610b57576001600160a01b038316600090815260036020526040812080548392906112499084906118f7565b909155505050505050565b60006001600160a01b0384163b1561134a57604051630a85bd0160e11b81526001600160a01b0385169063150b7a0290611298903390899088908890600401611b6d565b6020604051808303816000875af19250505080156112d3575060408051601f3d908101601f191682019092526112d091810190611baa565b60015b611330573d808015611301576040519150601f19603f3d011682016040523d82523d6000602084013e611306565b606091505b5080516000036113285760405162461bcd60e51b815260040161047590611b08565b805181602001fd5b6001600160e01b031916630a85bd0160e11b149050610d26565b506001949350505050565b60008072184f03e93ff9f4daa797ed6e38ed64bf6a1f0160401b83106113945772184f03e93ff9f4daa797ed6e38ed64bf6a1f0160401b830492506040015b6d04ee2d6d415b85acef810000000083106113c0576d04ee2d6d415b85acef8100000000830492506020015b662386f26fc1000083106113de57662386f26fc10000830492506010015b6305f5e10083106113f6576305f5e100830492506008015b612710831061140a57612710830492506004015b6064831061141c576064830492506002015b600a83106103425760010192915050565b6040518060c001604052806060815260200160608152602001606081526020016000815260200160006001600160a01b03168152602001600081525090565b6001600160e01b031981168114610c5e57600080fd5b60006020828403121561149457600080fd5b8135610bca8161146c565b60005b838110156114ba5781810151838201526020016114a2565b50506000910152565b600081518084526114db81602086016020860161149f565b601f01601f19169290920160200192915050565b602081526000610bca60208301846114c3565b60006020828403121561151457600080fd5b5035919050565b80356001600160a01b038116811461153257600080fd5b919050565b6000806040838503121561154a57600080fd5b6115538361151b565b946020939093013593505050565b60006020808301818452808551808352604092508286019150828160051b87010184880160005b8381101561161b57603f19898403018552815160c081518186526115ae828701826114c3565b915050888201518582038a8701526115c682826114c3565b91505087820151858203898701526115de82826114c3565b606084810151908801526080808501516001600160a01b03169088015260a093840151939096019290925250509386019390860190600101611588565b509098975050505050505050565b60008060006060848603121561163e57600080fd5b6116478461151b565b92506116556020850161151b565b9150604084013590509250925092565b634e487b7160e01b600052604160045260246000fd5b600067ffffffffffffffff8084111561169657611696611665565b604051601f8501601f19908116603f011681019082821181831017156116be576116be611665565b816040528093508581528686860111156116d757600080fd5b858560208301376000602087830101525050509392505050565b600082601f83011261170257600080fd5b610bca8383356020850161167b565b6000806000806080858703121561172757600080fd5b843567ffffffffffffffff8082111561173f57600080fd5b61174b888389016116f1565b9550602087013591508082111561176157600080fd5b61176d888389016116f1565b9450604087013591508082111561178357600080fd5b50611790878288016116f1565b949793965093946060013593505050565b6000602082840312156117b357600080fd5b610bca8261151b565b600080604083850312156117cf57600080fd5b6117d88361151b565b9150602083013580151581146117ed57600080fd5b809150509250929050565b6000806000806080858703121561180e57600080fd5b6118178561151b565b93506118256020860161151b565b925060408501359150606085013567ffffffffffffffff81111561184857600080fd5b8501601f8101871361185957600080fd5b6118688782356020840161167b565b91505092959194509250565b6000806040838503121561188757600080fd5b6118908361151b565b915061189e6020840161151b565b90509250929050565b600181811c908216806118bb57607f821691505b6020821081036118db57634e487b7160e01b600052602260045260246000fd5b50919050565b634e487b7160e01b600052601160045260246000fd5b80820180821115610342576103426118e1565b634e487b7160e01b600052603260045260246000fd5b600060018201611932576119326118e1565b5060010190565b6020808252602d908201527f4552433732313a2063616c6c6572206973206e6f7420746f6b656e206f776e6560408201526c1c881bdc88185c1c1c9bdd9959609a1b606082015260800190565b601f82111561051657600081815260208120601f850160051c810160208610156119ad5750805b601f850160051c820191505b818110156119cc578281556001016119b9565b505050505050565b815167ffffffffffffffff8111156119ee576119ee611665565b611a02816119fc84546118a7565b84611986565b602080601f831160018114611a375760008415611a1f5750858301515b600019600386901b1c1916600185901b1785556119cc565b600085815260208120601f198616915b82811015611a6657888601518255948401946001909101908401611a47565b5085821015611a845787850151600019600388901b60f8161c191681555b5050505050600190811b01905550565b60008351611aa681846020880161149f565b835190830190611aba81836020880161149f565b01949350505050565b60208082526025908201527f4552433732313a207472616e736665722066726f6d20696e636f72726563742060408201526437bbb732b960d91b606082015260800190565b60208082526032908201527f4552433732313a207472616e7366657220746f206e6f6e20455243373231526560408201527131b2b4bb32b91034b6b83632b6b2b73a32b960711b606082015260800190565b81810381811115610342576103426118e1565b6001600160a01b0385811682528416602082015260408101839052608060608201819052600090611ba0908301846114c3565b9695505050505050565b600060208284031215611bbc57600080fd5b8151610bca8161146c56fea26469706673582212201f02ce1ebfe9430ccd0ab1d7f8c20a388fbc278a1366ebc8a5de03bd2d130ffd64736f6c63430008110033",
  "linkReferences": {},
  "deployedLinkReferences": {}
}